{
  "contractName": "FuelPrice",
  "abi": [
    {
      "constant": true,
      "inputs": [],
      "name": "electricPriceUSD",
      "outputs": [
        {
          "name": "",
          "type": "uint256"
        }
      ],
      "payable": false,
      "stateMutability": "view",
      "type": "function"
    },
    {
      "constant": true,
      "inputs": [],
      "name": "dieselPriceUSD",
      "outputs": [
        {
          "name": "",
          "type": "uint256"
        }
      ],
      "payable": false,
      "stateMutability": "view",
      "type": "function"
    },
    {
      "inputs": [],
      "payable": true,
      "stateMutability": "payable",
      "type": "constructor"
    },
    {
      "anonymous": false,
      "inputs": [
        {
          "indexed": false,
          "name": "what",
          "type": "string"
        },
        {
          "indexed": false,
          "name": "id",
          "type": "bytes32"
        }
      ],
      "name": "NewOraclizeQuery",
      "type": "event"
    },
    {
      "anonymous": false,
      "inputs": [
        {
          "indexed": false,
          "name": "sender",
          "type": "address"
        }
      ],
      "name": "UpdateInvoke",
      "type": "event"
    },
    {
      "anonymous": false,
      "inputs": [
        {
          "indexed": false,
          "name": "what",
          "type": "string"
        },
        {
          "indexed": false,
          "name": "price",
          "type": "string"
        },
        {
          "indexed": false,
          "name": "id",
          "type": "bytes32"
        }
      ],
      "name": "NewPrice",
      "type": "event"
    },
    {
      "constant": false,
      "inputs": [
        {
          "name": "myid",
          "type": "bytes32"
        },
        {
          "name": "result",
          "type": "string"
        }
      ],
      "name": "__callback",
      "outputs": [],
      "payable": false,
      "stateMutability": "nonpayable",
      "type": "function"
    },
    {
      "constant": false,
      "inputs": [
        {
          "name": "myid",
          "type": "bytes32"
        },
        {
          "name": "result",
          "type": "string"
        },
        {
          "name": "proof",
          "type": "bytes"
        }
      ],
      "name": "__callback",
      "outputs": [],
      "payable": false,
      "stateMutability": "nonpayable",
      "type": "function"
    },
    {
      "constant": false,
      "inputs": [],
      "name": "updateDiesel",
      "outputs": [],
      "payable": true,
      "stateMutability": "payable",
      "type": "function"
    },
    {
      "constant": false,
      "inputs": [],
      "name": "updateElectric",
      "outputs": [],
      "payable": true,
      "stateMutability": "payable",
      "type": "function"
    }
  ],
  "bytecode": "0x606060405260008054600160a060020a03191673bb029d89efb9e7eda9c8baeb164cfbd021a6aa7717905562000042640100000000620004056200006082021704565b6200005a64010000000062000553620001ac82021704565b62000b61565b6000620001326040805190810160405280600381526020017f55524c000000000000000000000000000000000000000000000000000000000081525060806040519081016040908152604582527f786d6c2868747470733a2f2f7777772e6675656c65636f6e6f6d792e676f762f60208301527f77732f726573742f6675656c707269636573292e6675656c5072696365732e64908201527f696573656c00000000000000000000000000000000000000000000000000000060608201526401000000006200099b6200029082021704565b60008181526007602052604090819020805460ff1916600117905590915060008051602062001ddd83398151915290829051602081019190915260408082526006818301527f44696573656c000000000000000000000000000000000000000000000000000060608301526080909101905180910390a150565b6000620002166040805190810160405280600381526020017f55524c000000000000000000000000000000000000000000000000000000000081525061010060405190810160405260cc80825262001dfd60208301396401000000006200099b6200029082021704565b60008181526007602052604090819020805460ff1916600217905590915060008051602062001ddd83398151915290829051602081019190915260408082526008818301527f456c65637472696300000000000000000000000000000000000000000000000060608301526080909101905180910390a150565b600080548190600160a060020a03161580620002ce5750600054620002cc90600160a060020a031664010000000062000d20620006a282021704565b155b15620002f057620002ee600064010000000062000d24620006a682021704565b505b60008054600160a060020a0316906338cc483190604051602001526040518163ffffffff167c0100000000000000000000000000000000000000000000000000000000028152600401602060405180830381600087803b15156200035357600080fd5b6102c65a03f115156200036557600080fd5b5050506040518051600154600160a060020a039081169116149050620004245760008054600160a060020a0316906338cc483190604051602001526040518163ffffffff167c0100000000000000000000000000000000000000000000000000000000028152600401602060405180830381600087803b1515620003e857600080fd5b6102c65a03f11515620003fa57600080fd5b505050604051805160018054600160a060020a031916600160a060020a0392909216919091179055505b600154600160a060020a031663524f3889856000604051602001526040518263ffffffff167c01000000000000000000000000000000000000000000000000000000000281526004018080602001828103825283818151815260200191508051906020019080838360005b83811015620004a95780820151838201526020016200048f565b50505050905090810190601f168015620004d75780820380516001836020036101000a031916815260200191505b5092505050602060405180830381600087803b1515620004f657600080fd5b6102c65a03f115156200050857600080fd5b5050506040518051915050670de0b6b3a764000062030d403a02018111156200053557600091506200069b565b600154600160a060020a031663adf59f99826000878782604051602001526040518563ffffffff167c0100000000000000000000000000000000000000000000000000000000028152600401808481526020018060200180602001838103835285818151815260200191508051906020019080838360005b83811015620005c7578082015183820152602001620005ad565b50505050905090810190601f168015620005f55780820380516001836020036101000a031916815260200191505b50838103825284818151815260200191508051906020019080838360005b838110156200062d57808201518382015260200162000613565b50505050905090810190601f1680156200065b5780820380516001836020036101000a031916815260200191505b50955050505050506020604051808303818588803b15156200067c57600080fd5b6125ee5a03f115156200068e57600080fd5b5050505060405180519250505b5092915050565b3b90565b6000620006c064010000000062000d34620006c682021704565b92915050565b600080620006f6731d3b2638a7cc9f2cb3d298a3da7a90b67e5506ed64010000000062000d20620006a282021704565b1115620007785760008054600160a060020a031916731d3b2638a7cc9f2cb3d298a3da7a90b67e5506ed1790556200076f60408051908101604052600b81527f6574685f6d61696e6e65740000000000000000000000000000000000000000006020820152640100000000620010b362000aa682021704565b50600162000aa3565b6000620007a773c03a2615d5efaf5f49f60b7bb6583eaec212fdf164010000000062000d20620006a282021704565b1115620008205760008054600160a060020a03191673c03a2615d5efaf5f49f60b7bb6583eaec212fdf11790556200076f60408051908101604052600c81527f6574685f726f707374656e3300000000000000000000000000000000000000006020820152640100000000620010b362000aa682021704565b60006200084f73b7a07bcf2ba2f2703b24c0691b5278999c59ac7e64010000000062000d20620006a282021704565b1115620008c85760008054600160a060020a03191673b7a07bcf2ba2f2703b24c0691b5278999c59ac7e1790556200076f60408051908101604052600981527f6574685f6b6f76616e00000000000000000000000000000000000000000000006020820152640100000000620010b362000aa682021704565b6000620008f773146500cfd35b22e4a392fe0adc06de1a1368ed4864010000000062000d20620006a282021704565b1115620009705760008054600160a060020a03191673146500cfd35b22e4a392fe0adc06de1a1368ed481790556200076f60408051908101604052600b81527f6574685f72696e6b6562790000000000000000000000000000000000000000006020820152640100000000620010b362000aa682021704565b60006200099f736f485c8bf6fc43ea212e93bbf8ce046c7f1cb47564010000000062000d20620006a282021704565b1115620009d5575060008054600160a060020a031916736f485c8bf6fc43ea212e93bbf8ce046c7f1cb475179055600162000aa3565b600062000a047320e12a1f859b3feae5fb2a0a32c18f5a65555bbf64010000000062000d20620006a282021704565b111562000a3a575060008054600160a060020a0319167320e12a1f859b3feae5fb2a0a32c18f5a65555bbf179055600162000aa3565b600062000a697351efaf4c8b3c9afbd5ab9f4bbc82784ab6ef8faa64010000000062000d20620006a282021704565b111562000a9f575060008054600160a060020a0319167351efaf4c8b3c9afbd5ab9f4bbc82784ab6ef8faa179055600162000aa3565b5060005b90565b600281805162000abb92916020019062000abf565b5050565b828054600181600116156101000203166002900490600052602060002090601f016020900481019282601f1062000b0257805160ff191683800117855562000b32565b8280016001018555821562000b32579182015b8281111562000b3257825182559160200191906001019062000b15565b5062000b4092915062000b44565b5090565b62000aa391905b8082111562000b40576000815560010162000b4b565b61126c8062000b716000396000f30060606040526004361061005e5763ffffffff60e060020a60003504166320335c56811461006357806327dc297e1461008857806338bbfa50146100e05780633e0ae588146101785780637c5ad5521461018b57806383669b0414610193575b600080fd5b341561006e57600080fd5b61007661019b565b60405190815260200160405180910390f35b341561009357600080fd5b6100de600480359060446024803590810190830135806020601f820181900481020160405190810160405281815292919060208401838380828437509496506101a195505050505050565b005b34156100eb57600080fd5b6100de600480359060446024803590810190830135806020601f8201819004810201604051908101604052818152929190602084018383808284378201915050505050509190803590602001908201803590602001908080601f0160208091040260200160405190810160405281815292919060208401838380828437509496506103fa95505050505050565b341561018357600080fd5b6100766103ff565b6100de610405565b6100de610553565b60065481565b7f368a2765182b0d588c86b634acf7652ca5687f797ce8f8947d4bc44ec76802ab33604051600160a060020a03909116815260200160405180910390a16101e6610637565b600160a060020a031633600160a060020a031614151561020557600080fd5b600160008381526007602052604090205460ff16600281111561022457fe5b1415610314576102358160026107e5565b6005557f46464f87c80cbfa797d5ed65c01916b5d7c9489d2cac03e63b3f67a934d790dd81836040516040810182905260608082526006908201527f44696573656c0000000000000000000000000000000000000000000000000000608082015260a0602082018181528291820185818151815260200191508051906020019080838360005b838110156102d35780820151838201526020016102bb565b50505050905090810190601f1680156103005780820380516001836020036101000a031916815260200191505b5094505050505060405180910390a16103e1565b600260008381526007602052604090205460ff16600281111561033357fe5b141561005e576103448160026107e5565b6006557f46464f87c80cbfa797d5ed65c01916b5d7c9489d2cac03e63b3f67a934d790dd81836040516040810182905260608082526008908201527f456c656374726963000000000000000000000000000000000000000000000000608082015260a060208201818152829182018581815181526020019150805190602001908083836000838110156102d35780820151838201526020016102bb565b506000908152600760205260409020805460ff19169055565b505050565b60055481565b60006104c86040805190810160405280600381526020017f55524c0000000000000000000000000000000000000000000000000000000000815250608060405190810160405280604581526020017f786d6c2868747470733a2f2f7777772e6675656c65636f6e6f6d792e676f762f81526020017f77732f726573742f6675656c707269636573292e6675656c5072696365732e6481526020017f696573656c00000000000000000000000000000000000000000000000000000081525061099b565b60008181526007602052604090819020805460ff191660011790559091507fc68d75b059a3432b3b92ffd096eb46ff1d51e565fbeba1825eecb5c5f2f4092e90829051602081019190915260408082526006818301527f44696573656c000000000000000000000000000000000000000000000000000060608301526080909101905180910390a150565b60006105ac6040805190810160405280600381526020017f55524c000000000000000000000000000000000000000000000000000000000081525061010060405190810160405260cc808252611175602083013961099b565b60008181526007602052604090819020805460ff191660021790559091507fc68d75b059a3432b3b92ffd096eb46ff1d51e565fbeba1825eecb5c5f2f4092e90829051602081019190915260408082526008818301527f456c65637472696300000000000000000000000000000000000000000000000060608301526080909101905180910390a150565b60008054600160a060020a03161580610662575060005461066090600160a060020a0316610d20565b155b15610673576106716000610d24565b505b60008054600160a060020a0316906338cc483190604051602001526040518163ffffffff1660e060020a028152600401602060405180830381600087803b15156106bc57600080fd5b6102c65a03f115156106cd57600080fd5b5050506040518051600154600160a060020a03908116911614905061077d5760008054600160a060020a0316906338cc483190604051602001526040518163ffffffff1660e060020a028152600401602060405180830381600087803b151561073557600080fd5b6102c65a03f1151561074657600080fd5b50505060405180516001805473ffffffffffffffffffffffffffffffffffffffff1916600160a060020a0392909216919091179055505b600154600160a060020a031663c281d19e6000604051602001526040518163ffffffff1660e060020a028152600401602060405180830381600087803b15156107c557600080fd5b6102c65a03f115156107d657600080fd5b50505060405180519150505b90565b60006107ef6110ca565b5082600080805b835181101561097e577f300000000000000000000000000000000000000000000000000000000000000084828151811061082c57fe5b016020015160f860020a900460f860020a027effffffffffffffffffffffffffffffffffffffffffffffffffffffffffffff1916101580156108cd57507f390000000000000000000000000000000000000000000000000000000000000084828151811061089657fe5b016020015160f860020a900460f860020a027effffffffffffffffffffffffffffffffffffffffffffffffffffffffffffff191611155b156109235781156108ec578515156108e45761097e565b600019909501945b600a83029250603084828151811061090057fe5b016020015160f860020a900460f860020a0260f860020a90040383019250610976565b83818151811061092f57fe5b016020015160f860020a900460f860020a027effffffffffffffffffffffffffffffffffffffffffffffffffffffffffffff1916602e60f860020a02141561097657600191505b6001016107f6565b60008611156109905785600a0a830292505b509095945050505050565b600080548190600160a060020a031615806109c857506000546109c690600160a060020a0316610d20565b155b156109d9576109d76000610d24565b505b60008054600160a060020a0316906338cc483190604051602001526040518163ffffffff1660e060020a028152600401602060405180830381600087803b1515610a2257600080fd5b6102c65a03f11515610a3357600080fd5b5050506040518051600154600160a060020a039081169116149050610ae35760008054600160a060020a0316906338cc483190604051602001526040518163ffffffff1660e060020a028152600401602060405180830381600087803b1515610a9b57600080fd5b6102c65a03f11515610aac57600080fd5b50505060405180516001805473ffffffffffffffffffffffffffffffffffffffff1916600160a060020a0392909216919091179055505b600154600160a060020a031663524f3889856000604051602001526040518263ffffffff1660e060020a0281526004018080602001828103825283818151815260200191508051906020019080838360005b83811015610b4d578082015183820152602001610b35565b50505050905090810190601f168015610b7a5780820380516001836020036101000a031916815260200191505b5092505050602060405180830381600087803b1515610b9857600080fd5b6102c65a03f11515610ba957600080fd5b5050506040518051915050670de0b6b3a764000062030d403a0201811115610bd45760009150610d19565b600154600160a060020a031663adf59f99826000878782604051602001526040518563ffffffff1660e060020a028152600401808481526020018060200180602001838103835285818151815260200191508051906020019080838360005b83811015610c4b578082015183820152602001610c33565b50505050905090810190601f168015610c785780820380516001836020036101000a031916815260200191505b50838103825284818151815260200191508051906020019080838360005b83811015610cae578082015183820152602001610c96565b50505050905090810190601f168015610cdb5780820380516001836020036101000a031916815260200191505b50955050505050506020604051808303818588803b1515610cfb57600080fd5b6125ee5a03f11515610d0c57600080fd5b5050505060405180519250505b5092915050565b3b90565b6000610d2e610d34565b92915050565b600080610d54731d3b2638a7cc9f2cb3d298a3da7a90b67e5506ed610d20565b1115610dd1576000805473ffffffffffffffffffffffffffffffffffffffff1916731d3b2638a7cc9f2cb3d298a3da7a90b67e5506ed179055610dc960408051908101604052600b81527f6574685f6d61696e6e657400000000000000000000000000000000000000000060208201526110b3565b5060016107e2565b6000610df073c03a2615d5efaf5f49f60b7bb6583eaec212fdf1610d20565b1115610e65576000805473ffffffffffffffffffffffffffffffffffffffff191673c03a2615d5efaf5f49f60b7bb6583eaec212fdf1179055610dc960408051908101604052600c81527f6574685f726f707374656e33000000000000000000000000000000000000000060208201526110b3565b6000610e8473b7a07bcf2ba2f2703b24c0691b5278999c59ac7e610d20565b1115610ef9576000805473ffffffffffffffffffffffffffffffffffffffff191673b7a07bcf2ba2f2703b24c0691b5278999c59ac7e179055610dc960408051908101604052600981527f6574685f6b6f76616e000000000000000000000000000000000000000000000060208201526110b3565b6000610f1873146500cfd35b22e4a392fe0adc06de1a1368ed48610d20565b1115610f8d576000805473ffffffffffffffffffffffffffffffffffffffff191673146500cfd35b22e4a392fe0adc06de1a1368ed48179055610dc960408051908101604052600b81527f6574685f72696e6b65627900000000000000000000000000000000000000000060208201526110b3565b6000610fac736f485c8bf6fc43ea212e93bbf8ce046c7f1cb475610d20565b1115610fed57506000805473ffffffffffffffffffffffffffffffffffffffff1916736f485c8bf6fc43ea212e93bbf8ce046c7f1cb47517905560016107e2565b600061100c7320e12a1f859b3feae5fb2a0a32c18f5a65555bbf610d20565b111561104d57506000805473ffffffffffffffffffffffffffffffffffffffff19167320e12a1f859b3feae5fb2a0a32c18f5a65555bbf17905560016107e2565b600061106c7351efaf4c8b3c9afbd5ab9f4bbc82784ab6ef8faa610d20565b11156110ad57506000805473ffffffffffffffffffffffffffffffffffffffff19167351efaf4c8b3c9afbd5ab9f4bbc82784ab6ef8faa17905560016107e2565b50600090565b60028180516110c69291602001906110dc565b5050565b60206040519081016040526000815290565b828054600181600116156101000203166002900490600052602060002090601f016020900481019282601f1061111d57805160ff191683800117855561114a565b8280016001018555821561114a579182015b8281111561114a57825182559160200191906001019061112f565b5061115692915061115a565b5090565b6107e291905b808211156111565760008155600101611160560042476d6d5552787133524b694c396845636b63503170577142454250664e64425248724f41333863484968514e634653374e4c7967345a6f4677686172393658786358544a54426d726f795753764c386e7a745038495266354436433943725437556e3338524471425448336e66683834613479663449305234743237674763666452307070337539592b647a345556512b345a6634474a2b5a7256554644783247797a394c5551657a645638555a7a35682b44304541672b49422f3078374f6a324d31376d2b595937593da165627a7a72305820a8772d3a7069354d56735f145ae88307c0ecabfd86a03ad964a1cb6aacb849d40029c68d75b059a3432b3b92ffd096eb46ff1d51e565fbeba1825eecb5c5f2f4092e42476d6d5552787133524b694c396845636b63503170577142454250664e64425248724f41333863484968514e634653374e4c7967345a6f4677686172393658786358544a54426d726f795753764c386e7a745038495266354436433943725437556e3338524471425448336e66683834613479663449305234743237674763666452307070337539592b647a345556512b345a6634474a2b5a7256554644783247797a394c5551657a645638555a7a35682b44304541672b49422f3078374f6a324d31376d2b595937593d",
  "source": "/*\n    Diesel Price Peg\n\n    This contract keeps in storage a reference\n    to the Diesel Price in USD\n*/\npragma solidity ^0.4.18;\n\nimport \"./oraclizeAPI_0.5.sol\";\n\n\ncontract FuelPrice is usingOraclize {\n\n    enum Query {\n        INVALID,\n        DIESEL,\n        ELECTRIC\n    }\n\n    uint public dieselPriceUSD;\n    uint public electricPriceUSD;\n\n    mapping(bytes32 => Query) validIds;\n\n    event NewOraclizeQuery(string what, bytes32 id);\n    event UpdateInvoke(address sender);\n    event NewPrice(string what, string price, bytes32 id);\n\n    function FuelPrice() public payable {\n        // send some Ethers with the deployment!\n\n        // this line is given by the ethereum-bridge\n        OAR = OraclizeAddrResolverI(0xBb029d89EFb9E7EDA9C8BAEb164cfBd021A6aa77);\n\n        // first check at contract creation\n        updateDiesel(); \n        updateElectric();\n    }\n\n    function __callback(bytes32 myid, string result) public {\n        UpdateInvoke(msg.sender);\n        if (msg.sender != oraclize_cbAddress()) revert();\n        \n        if (validIds[myid] == Query.DIESEL) {\n            dieselPriceUSD = parseInt(result, 2); // let's save it as $ cents\n            NewPrice(\"Diesel\", result, myid);\n        } else if (validIds[myid] == Query.ELECTRIC) {\n            electricPriceUSD = parseInt(result, 2); // let's save it as $ cents\n            NewPrice(\"Electric\", result, myid);\n        } else {\n            // validIds[myid] == Query.INVALID\n            revert();\n        }\n        // This query id is invalidated \n        validIds[myid] = Query.INVALID;\n    }\n\n    function updateDiesel() public payable {\n        bytes32 queryId = oraclize_query(\"URL\", \"xml(https://www.fueleconomy.gov/ws/rest/fuelprices).fuelPrices.diesel\");\n        // add query ID to mapping\n        validIds[queryId] = Query.DIESEL;\n        NewOraclizeQuery(\"Diesel\", queryId);\n    }\n\n    function updateElectric() public payable {\n        // encrypted query\n        // bytes32 queryId = oraclize_query(\"URL\", \"https://www.fueleconomy.gov/ws/rest/fuelprices).fuelPrices.electric\");\n        bytes32 queryId = oraclize_query(\"URL\", \"BGmmURxq3RKiL9hEckcP1pWqBEBPfNdBRHrOA38cHIhQNcFS7NLyg4ZoFwhar96XxcXTJTBmroyWSvL8nztP8IRf5D6C9CrT7Un38RDqBTH3nfh84a4yf4I0R4t27gGcfdR0pp3u9Y+dz4UVQ+4Zf4GJ+ZrVUFDx2Gyz9LUQezdV8UZz5h+D0EAg+IB/0x7Oj2M17m+YY7Y=\");\n        // add query ID to mapping\n        validIds[queryId] = Query.ELECTRIC;\n        NewOraclizeQuery(\"Electric\", queryId);\n    }\n\n}",
  "sourcePath": "/home/aznagy/work/oraclize/tutorial-oraclize/contracts/FuelPrice.sol",
  "compiler": {
    "name": "solc",
    "version": "0.4.19+commit.c4cbbb05.Emscripten.clang"
  },
  "schemaVersion": "2.0.0",
  "updatedAt": "2018-08-15T19:50:45.790Z"
}