{
  "contractName": "KrakenPriceTicker",
  "abi": [
    {
      "constant": true,
      "inputs": [],
      "name": "priceETHXBT",
      "outputs": [
        {
          "name": "",
          "type": "string"
        }
      ],
      "payable": false,
      "stateMutability": "view",
      "type": "function"
    },
    {
      "inputs": [],
      "payable": true,
      "stateMutability": "payable",
      "type": "constructor"
    },
    {
      "anonymous": false,
      "inputs": [
        {
          "indexed": false,
          "name": "description",
          "type": "string"
        },
        {
          "indexed": false,
          "name": "fee",
          "type": "uint256"
        },
        {
          "indexed": false,
          "name": "id",
          "type": "bytes32"
        }
      ],
      "name": "NewOraclizeQuery",
      "type": "event"
    },
    {
      "anonymous": false,
      "inputs": [
        {
          "indexed": false,
          "name": "price",
          "type": "string"
        },
        {
          "indexed": false,
          "name": "id",
          "type": "bytes32"
        },
        {
          "indexed": false,
          "name": "proof",
          "type": "bytes"
        }
      ],
      "name": "NewKrakenPriceTicker",
      "type": "event"
    },
    {
      "constant": false,
      "inputs": [
        {
          "name": "myid",
          "type": "bytes32"
        },
        {
          "name": "result",
          "type": "string"
        }
      ],
      "name": "__callback",
      "outputs": [],
      "payable": false,
      "stateMutability": "nonpayable",
      "type": "function"
    },
    {
      "constant": false,
      "inputs": [
        {
          "name": "myid",
          "type": "bytes32"
        },
        {
          "name": "result",
          "type": "string"
        },
        {
          "name": "proof",
          "type": "bytes"
        }
      ],
      "name": "__callback",
      "outputs": [],
      "payable": false,
      "stateMutability": "nonpayable",
      "type": "function"
    },
    {
      "constant": false,
      "inputs": [],
      "name": "update",
      "outputs": [],
      "payable": true,
      "stateMutability": "payable",
      "type": "function"
    }
  ],
  "bytecode": "0x606060405260008054600160a060020a03191673bb029d89efb9e7eda9c8baeb164cfbd021a6aa77179055620000637f11000000000000000000000000000000000000000000000000000000000000006401000000006200126c6200009c82021704565b6200007e6103e864010000000062001431620002c882021704565b620000966401000000006200039a620004bb82021704565b620012b3565b600054600160a060020a03161580620000d75750600054620000d590600160a060020a031664010000000062000e326200075882021704565b155b15620000f957620000f7600064010000000062000e366200075c82021704565b505b60008054600160a060020a0316906338cc483190604051602001526040518163ffffffff167c0100000000000000000000000000000000000000000000000000000000028152600401602060405180830381600087803b15156200015c57600080fd5b6102c65a03f115156200016e57600080fd5b5050506040518051600154600160a060020a0390811691161490506200022d5760008054600160a060020a0316906338cc483190604051602001526040518163ffffffff167c0100000000000000000000000000000000000000000000000000000000028152600401602060405180830381600087803b1515620001f157600080fd5b6102c65a03f115156200020357600080fd5b505050604051805160018054600160a060020a031916600160a060020a0392909216919091179055505b600154600160a060020a031663688dcfd7826040517c010000000000000000000000000000000000000000000000000000000063ffffffff84160281527fff000000000000000000000000000000000000000000000000000000000000009091166004820152602401600060405180830381600087803b1515620002b057600080fd5b6102c65a03f11515620002c257600080fd5b50505050565b600054600160a060020a031615806200030357506000546200030190600160a060020a031664010000000062000e326200075882021704565b155b15620003255762000323600064010000000062000e366200075c82021704565b505b60008054600160a060020a0316906338cc483190604051602001526040518163ffffffff167c0100000000000000000000000000000000000000000000000000000000028152600401602060405180830381600087803b15156200038857600080fd5b6102c65a03f115156200039a57600080fd5b5050506040518051600154600160a060020a039081169116149050620004595760008054600160a060020a0316906338cc483190604051602001526040518163ffffffff167c0100000000000000000000000000000000000000000000000000000000028152600401602060405180830381600087803b15156200041d57600080fd5b6102c65a03f115156200042f57600080fd5b505050604051805160018054600160a060020a031916600160a060020a0392909216919091179055505b600154600160a060020a031663ca6ad1e4826040517c010000000000000000000000000000000000000000000000000000000063ffffffff84160281526004810191909152602401600060405180830381600087803b1515620002b057600080fd5b6000806200050a60408051908101604052600381527f55524c00000000000000000000000000000000000000000000000000000000006020820152640100000000620008836200077c82021704565b915030600160a060020a031631821115620005d557600080516020620028ad83398151915282600060405160208101929092526040808301919091526060808352604b908301527f4f7261636c697a6520717565727920776173204e4f542073656e742c20706c6560808301527f6173652061646420736f6d652045544820746f20636f76657220666f7220746860a08301527f652071756572792066656500000000000000000000000000000000000000000060c083015260e0909101905180910390a162000754565b620006ab603c6040805190810160405280600381526020017f55524c000000000000000000000000000000000000000000000000000000000081525060806040519081016040908152604c82527f6a736f6e2868747470733a2f2f6170692e6b72616b656e2e636f6d2f302f707560208301527f626c69632f5469636b65723f706169723d455448584254292e726573756c742e908201527f58455448585842542e632e30000000000000000000000000000000000000000060608201526202bf2064010000000062000a9e62000a0182021704565b60008181526006602052604090819020805460ff19166001179055909150600080516020620028ad833981519152908390839051602081019290925260408083019190915260608083526035908301527f4f7261636c697a65207175657279207761732073656e742c207374616e64696e60808301527f6720627920666f722074686520616e737765722e2e000000000000000000000060a083015260c0909101905180910390a15b5050565b3b90565b60006200077664010000000062000e4662000e2282021704565b92915050565b60008054600160a060020a03161580620007b85750600054620007b690600160a060020a031664010000000062000e326200075882021704565b155b15620007da57620007d8600064010000000062000e366200075c82021704565b505b60008054600160a060020a0316906338cc483190604051602001526040518163ffffffff167c0100000000000000000000000000000000000000000000000000000000028152600401602060405180830381600087803b15156200083d57600080fd5b6102c65a03f115156200084f57600080fd5b5050506040518051600154600160a060020a0390811691161490506200090e5760008054600160a060020a0316906338cc483190604051602001526040518163ffffffff167c0100000000000000000000000000000000000000000000000000000000028152600401602060405180830381600087803b1515620008d257600080fd5b6102c65a03f11515620008e457600080fd5b505050604051805160018054600160a060020a031916600160a060020a0392909216919091179055505b600154600160a060020a031663524f3889836000604051602001526040518263ffffffff167c01000000000000000000000000000000000000000000000000000000000281526004018080602001828103825283818151815260200191508051906020019080838360005b838110156200099357808201518382015260200162000979565b50505050905090810190601f168015620009c15780820380516001836020036101000a031916815260200191505b5092505050602060405180830381600087803b1515620009e057600080fd5b6102c65a03f11515620009f257600080fd5b50505060405180519392505050565b600080548190600160a060020a0316158062000a3f575060005462000a3d90600160a060020a031664010000000062000e326200075882021704565b155b1562000a615762000a5f600064010000000062000e366200075c82021704565b505b60008054600160a060020a0316906338cc483190604051602001526040518163ffffffff167c0100000000000000000000000000000000000000000000000000000000028152600401602060405180830381600087803b151562000ac457600080fd5b6102c65a03f1151562000ad657600080fd5b5050506040518051600154600160a060020a03908116911614905062000b955760008054600160a060020a0316906338cc483190604051602001526040518163ffffffff167c0100000000000000000000000000000000000000000000000000000000028152600401602060405180830381600087803b151562000b5957600080fd5b6102c65a03f1151562000b6b57600080fd5b505050604051805160018054600160a060020a031916600160a060020a0392909216919091179055505b600154600160a060020a0316632ef3accc86856000604051602001526040518363ffffffff167c01000000000000000000000000000000000000000000000000000000000281526004018080602001838152602001828103825284818151815260200191508051906020019080838360005b8381101562000c2157808201518382015260200162000c07565b50505050905090810190601f16801562000c4f5780820380516001836020036101000a031916815260200191505b509350505050602060405180830381600087803b151562000c6f57600080fd5b6102c65a03f1151562000c8157600080fd5b5050506040518051915050670de0b6b3a76400003a84020181111562000cab576000915062000e19565b600154600160a060020a031663c51be90f82888888886000604051602001526040518663ffffffff167c0100000000000000000000000000000000000000000000000000000000028152600401808581526020018060200180602001848152602001838103835286818151815260200191508051906020019080838360005b8381101562000d4457808201518382015260200162000d2a565b50505050905090810190601f16801562000d725780820380516001836020036101000a031916815260200191505b50838103825285818151815260200191508051906020019080838360005b8381101562000daa57808201518382015260200162000d90565b50505050905090810190601f16801562000dd85780820380516001836020036101000a031916815260200191505b5096505050505050506020604051808303818588803b151562000dfa57600080fd5b6125ee5a03f1151562000e0c57600080fd5b5050505060405180519250505b50949350505050565b60008062000e52731d3b2638a7cc9f2cb3d298a3da7a90b67e5506ed64010000000062000e326200075882021704565b111562000ed45760008054600160a060020a031916731d3b2638a7cc9f2cb3d298a3da7a90b67e5506ed17905562000ecb60408051908101604052600b81527f6574685f6d61696e6e65740000000000000000000000000000000000000000006020820152640100000000620011c56200120282021704565b506001620011ff565b600062000f0373c03a2615d5efaf5f49f60b7bb6583eaec212fdf164010000000062000e326200075882021704565b111562000f7c5760008054600160a060020a03191673c03a2615d5efaf5f49f60b7bb6583eaec212fdf117905562000ecb60408051908101604052600c81527f6574685f726f707374656e3300000000000000000000000000000000000000006020820152640100000000620011c56200120282021704565b600062000fab73b7a07bcf2ba2f2703b24c0691b5278999c59ac7e64010000000062000e326200075882021704565b1115620010245760008054600160a060020a03191673b7a07bcf2ba2f2703b24c0691b5278999c59ac7e17905562000ecb60408051908101604052600981527f6574685f6b6f76616e00000000000000000000000000000000000000000000006020820152640100000000620011c56200120282021704565b60006200105373146500cfd35b22e4a392fe0adc06de1a1368ed4864010000000062000e326200075882021704565b1115620010cc5760008054600160a060020a03191673146500cfd35b22e4a392fe0adc06de1a1368ed4817905562000ecb60408051908101604052600b81527f6574685f72696e6b6562790000000000000000000000000000000000000000006020820152640100000000620011c56200120282021704565b6000620010fb736f485c8bf6fc43ea212e93bbf8ce046c7f1cb47564010000000062000e326200075882021704565b111562001131575060008054600160a060020a031916736f485c8bf6fc43ea212e93bbf8ce046c7f1cb4751790556001620011ff565b6000620011607320e12a1f859b3feae5fb2a0a32c18f5a65555bbf64010000000062000e326200075882021704565b111562001196575060008054600160a060020a0319167320e12a1f859b3feae5fb2a0a32c18f5a65555bbf1790556001620011ff565b6000620011c57351efaf4c8b3c9afbd5ab9f4bbc82784ab6ef8faa64010000000062000e326200075882021704565b1115620011fb575060008054600160a060020a0319167351efaf4c8b3c9afbd5ab9f4bbc82784ab6ef8faa1790556001620011ff565b5060005b90565b600281805162000754929160200190828054600181600116156101000203166002900490600052602060002090601f016020900481019282601f106200125457805160ff191683800117855562001284565b8280016001018555821562001284579182015b828111156200128457825182559160200191906001019062001267565b506200129292915062001296565b5090565b620011ff91905b808211156200129257600081556001016200129d565b6115ea80620012c36000396000f3006060604052600436106100485763ffffffff60e060020a60003504166327dc297e811461004d57806338bbfa50146100a5578063a2e620451461013d578063e137ec2d14610145575b600080fd5b341561005857600080fd5b6100a3600480359060446024803590810190830135806020601f820181900481020160405190810160405281815292919060208401838380828437509496506101cf95505050505050565b005b34156100b057600080fd5b6100a3600480359060446024803590810190830135806020601f8201819004810201604051908101604052818152929190602084018383808284378201915050505050509190803590602001908201803590602001908080601f01602080910402602001604051908101604052818152929190602084018383808284375094965061020195505050505050565b6100a361039a565b341561015057600080fd5b610158610637565b60405160208082528190810183818151815260200191508051906020019080838360005b8381101561019457808201518382015260200161017c565b50505050905090810190601f1680156101c15780820380516001836020036101000a031916815260200191505b509250505060405180910390f35b6101fd828260006040518059106101e35750595b818152601f19601f83011681016020016040529050610201565b5050565b6102096106d5565b600160a060020a031633600160a060020a031614151561022857600080fd5b60008381526006602052604090205460ff16151561024557600080fd5b60058280516102589291602001906111d4565b507f0e1622293ecfe24e2c6a74cb531964b5133ac40879dc71c54feed200bf60cac360058483604051602081018390526060808252845460026101006001831615026000190190911604908201819052819060408201906080830190879080156103035780601f106102d857610100808354040283529160200191610303565b820191906000526020600020905b8154815290600101906020018083116102e657829003601f168201915b5050838103825284818151815260200191508051906020019080838360005b8381101561033a578082015183820152602001610322565b50505050905090810190601f1680156103675780820380516001836020036101000a031916815260200191505b509550505050505060405180910390a16000838152600660205260409020805460ff1916905561039561039a565b505050565b6000806103d960408051908101604052600381527f55524c00000000000000000000000000000000000000000000000000000000006020820152610883565b915030600160a060020a0316318211156104b3577fa5d25360fdd35cce2709086bc23d983d9b2d923e48e52508d12e63a44484019482600060405160208101929092526040808301919091526060808352604b908301527f4f7261636c697a6520717565727920776173204e4f542073656e742c20706c6560808301527f6173652061646420736f6d652045544820746f20636f76657220666f7220746860a08301527f652071756572792066656500000000000000000000000000000000000000000060c083015260e0909101905180910390a16101fd565b61057a603c6040805190810160405280600381526020017f55524c0000000000000000000000000000000000000000000000000000000000815250608060405190810160405280604c81526020017f6a736f6e2868747470733a2f2f6170692e6b72616b656e2e636f6d2f302f707581526020017f626c69632f5469636b65723f706169723d455448584254292e726573756c742e81526020017f58455448585842542e632e3000000000000000000000000000000000000000008152506202bf20610a9e565b60008181526006602052604090819020805460ff191660011790559091507fa5d25360fdd35cce2709086bc23d983d9b2d923e48e52508d12e63a444840194908390839051602081019290925260408083019190915260608083526035908301527f4f7261636c697a65207175657279207761732073656e742c207374616e64696e60808301527f6720627920666f722074686520616e737765722e2e000000000000000000000060a083015260c0909101905180910390a15050565b60058054600181600116156101000203166002900480601f0160208091040260200160405190810160405280929190818152602001828054600181600116156101000203166002900480156106cd5780601f106106a2576101008083540402835291602001916106cd565b820191906000526020600020905b8154815290600101906020018083116106b057829003601f168201915b505050505081565b60008054600160a060020a0316158061070057506000546106fe90600160a060020a0316610e32565b155b156107115761070f6000610e36565b505b60008054600160a060020a0316906338cc483190604051602001526040518163ffffffff1660e060020a028152600401602060405180830381600087803b151561075a57600080fd5b6102c65a03f1151561076b57600080fd5b5050506040518051600154600160a060020a03908116911614905061081b5760008054600160a060020a0316906338cc483190604051602001526040518163ffffffff1660e060020a028152600401602060405180830381600087803b15156107d357600080fd5b6102c65a03f115156107e457600080fd5b50505060405180516001805473ffffffffffffffffffffffffffffffffffffffff1916600160a060020a0392909216919091179055505b600154600160a060020a031663c281d19e6000604051602001526040518163ffffffff1660e060020a028152600401602060405180830381600087803b151561086357600080fd5b6102c65a03f1151561087457600080fd5b50505060405180519150505b90565b60008054600160a060020a031615806108ae57506000546108ac90600160a060020a0316610e32565b155b156108bf576108bd6000610e36565b505b60008054600160a060020a0316906338cc483190604051602001526040518163ffffffff1660e060020a028152600401602060405180830381600087803b151561090857600080fd5b6102c65a03f1151561091957600080fd5b5050506040518051600154600160a060020a0390811691161490506109c95760008054600160a060020a0316906338cc483190604051602001526040518163ffffffff1660e060020a028152600401602060405180830381600087803b151561098157600080fd5b6102c65a03f1151561099257600080fd5b50505060405180516001805473ffffffffffffffffffffffffffffffffffffffff1916600160a060020a0392909216919091179055505b600154600160a060020a031663524f3889836000604051602001526040518263ffffffff1660e060020a0281526004018080602001828103825283818151815260200191508051906020019080838360005b83811015610a33578082015183820152602001610a1b565b50505050905090810190601f168015610a605780820380516001836020036101000a031916815260200191505b5092505050602060405180830381600087803b1515610a7e57600080fd5b6102c65a03f11515610a8f57600080fd5b50505060405180519392505050565b600080548190600160a060020a03161580610acb5750600054610ac990600160a060020a0316610e32565b155b15610adc57610ada6000610e36565b505b60008054600160a060020a0316906338cc483190604051602001526040518163ffffffff1660e060020a028152600401602060405180830381600087803b1515610b2557600080fd5b6102c65a03f11515610b3657600080fd5b5050506040518051600154600160a060020a039081169116149050610be65760008054600160a060020a0316906338cc483190604051602001526040518163ffffffff1660e060020a028152600401602060405180830381600087803b1515610b9e57600080fd5b6102c65a03f11515610baf57600080fd5b50505060405180516001805473ffffffffffffffffffffffffffffffffffffffff1916600160a060020a0392909216919091179055505b600154600160a060020a0316632ef3accc86856000604051602001526040518363ffffffff1660e060020a0281526004018080602001838152602001828103825284818151815260200191508051906020019080838360005b83811015610c57578082015183820152602001610c3f565b50505050905090810190601f168015610c845780820380516001836020036101000a031916815260200191505b509350505050602060405180830381600087803b1515610ca357600080fd5b6102c65a03f11515610cb457600080fd5b5050506040518051915050670de0b6b3a76400003a840201811115610cdc5760009150610e29565b600154600160a060020a031663c51be90f82888888886000604051602001526040518663ffffffff1660e060020a028152600401808581526020018060200180602001848152602001838103835286818151815260200191508051906020019080838360005b83811015610d5a578082015183820152602001610d42565b50505050905090810190601f168015610d875780820380516001836020036101000a031916815260200191505b50838103825285818151815260200191508051906020019080838360005b83811015610dbd578082015183820152602001610da5565b50505050905090810190601f168015610dea5780820380516001836020036101000a031916815260200191505b5096505050505050506020604051808303818588803b1515610e0b57600080fd5b6125ee5a03f11515610e1c57600080fd5b5050505060405180519250505b50949350505050565b3b90565b6000610e40610e46565b92915050565b600080610e66731d3b2638a7cc9f2cb3d298a3da7a90b67e5506ed610e32565b1115610ee3576000805473ffffffffffffffffffffffffffffffffffffffff1916731d3b2638a7cc9f2cb3d298a3da7a90b67e5506ed179055610edb60408051908101604052600b81527f6574685f6d61696e6e657400000000000000000000000000000000000000000060208201526111c5565b506001610880565b6000610f0273c03a2615d5efaf5f49f60b7bb6583eaec212fdf1610e32565b1115610f77576000805473ffffffffffffffffffffffffffffffffffffffff191673c03a2615d5efaf5f49f60b7bb6583eaec212fdf1179055610edb60408051908101604052600c81527f6574685f726f707374656e33000000000000000000000000000000000000000060208201526111c5565b6000610f9673b7a07bcf2ba2f2703b24c0691b5278999c59ac7e610e32565b111561100b576000805473ffffffffffffffffffffffffffffffffffffffff191673b7a07bcf2ba2f2703b24c0691b5278999c59ac7e179055610edb60408051908101604052600981527f6574685f6b6f76616e000000000000000000000000000000000000000000000060208201526111c5565b600061102a73146500cfd35b22e4a392fe0adc06de1a1368ed48610e32565b111561109f576000805473ffffffffffffffffffffffffffffffffffffffff191673146500cfd35b22e4a392fe0adc06de1a1368ed48179055610edb60408051908101604052600b81527f6574685f72696e6b65627900000000000000000000000000000000000000000060208201526111c5565b60006110be736f485c8bf6fc43ea212e93bbf8ce046c7f1cb475610e32565b11156110ff57506000805473ffffffffffffffffffffffffffffffffffffffff1916736f485c8bf6fc43ea212e93bbf8ce046c7f1cb4751790556001610880565b600061111e7320e12a1f859b3feae5fb2a0a32c18f5a65555bbf610e32565b111561115f57506000805473ffffffffffffffffffffffffffffffffffffffff19167320e12a1f859b3feae5fb2a0a32c18f5a65555bbf1790556001610880565b600061117e7351efaf4c8b3c9afbd5ab9f4bbc82784ab6ef8faa610e32565b11156111bf57506000805473ffffffffffffffffffffffffffffffffffffffff19167351efaf4c8b3c9afbd5ab9f4bbc82784ab6ef8faa1790556001610880565b50600090565b60028180516101fd9291602001905b828054600181600116156101000203166002900490600052602060002090601f016020900481019282601f1061121557805160ff1916838001178555611242565b82800160010185558215611242579182015b82811115611242578251825591602001919060010190611227565b5061124e929150611252565b5090565b61088091905b8082111561124e5760008155600101611258565b600054600160a060020a03161580611296575060005461129490600160a060020a0316610e32565b155b156112a7576112a56000610e36565b505b60008054600160a060020a0316906338cc483190604051602001526040518163ffffffff1660e060020a028152600401602060405180830381600087803b15156112f057600080fd5b6102c65a03f1151561130157600080fd5b5050506040518051600154600160a060020a0390811691161490506113b15760008054600160a060020a0316906338cc483190604051602001526040518163ffffffff1660e060020a028152600401602060405180830381600087803b151561136957600080fd5b6102c65a03f1151561137a57600080fd5b50505060405180516001805473ffffffffffffffffffffffffffffffffffffffff1916600160a060020a0392909216919091179055505b600154600160a060020a031663688dcfd78260405160e060020a63ffffffff84160281527fff000000000000000000000000000000000000000000000000000000000000009091166004820152602401600060405180830381600087803b151561141a57600080fd5b6102c65a03f1151561142b57600080fd5b50505050565b600054600160a060020a0316158061145b575060005461145990600160a060020a0316610e32565b155b1561146c5761146a6000610e36565b505b60008054600160a060020a0316906338cc483190604051602001526040518163ffffffff1660e060020a028152600401602060405180830381600087803b15156114b557600080fd5b6102c65a03f115156114c657600080fd5b5050506040518051600154600160a060020a0390811691161490506115765760008054600160a060020a0316906338cc483190604051602001526040518163ffffffff1660e060020a028152600401602060405180830381600087803b151561152e57600080fd5b6102c65a03f1151561153f57600080fd5b50505060405180516001805473ffffffffffffffffffffffffffffffffffffffff1916600160a060020a0392909216919091179055505b600154600160a060020a031663ca6ad1e48260405160e060020a63ffffffff84160281526004810191909152602401600060405180830381600087803b151561141a57600080fd00a165627a7a723058205c82c96d476d6a09a445837892902089e491fbe98cb316ef4478c4e77d04fee80029a5d25360fdd35cce2709086bc23d983d9b2d923e48e52508d12e63a444840194",
  "source": "/*\n   Kraken-based ETH/XBT price ticker\n\n   This contract keeps in storage an updated ETH/XBT price,\n   which is updated every ~60 seconds.\n*/\npragma solidity ^0.4.18;\n\nimport \"./oraclizeAPI_0.5.sol\";\n\n\ncontract KrakenPriceTicker is usingOraclize {\n\n    string public priceETHXBT;\n    mapping(bytes32 => bool) validIds;\n\n    uint constant _gasLimit = 180000 wei;\n\n    event NewOraclizeQuery(string description, uint fee, bytes32 id);\n    event NewKrakenPriceTicker(string price, bytes32 id, bytes proof);\n\n    function KrakenPriceTicker() public payable {\n        OAR = OraclizeAddrResolverI(0xBb029d89EFb9E7EDA9C8BAEb164cfBd021A6aa77);\n        \n        // The proof will be received as an IPFS hash\n        oraclize_setProof(proofType_TLSNotary | proofStorage_IPFS);\n\n        // set gas price for Oraclize callback\n        oraclize_setCustomGasPrice(1000 wei);\n\n        update();\n    }\n\n    function __callback(bytes32 myid, string result, bytes proof) public {\n        if (msg.sender != oraclize_cbAddress()) revert();\n        if (!validIds[myid]) revert();\n        priceETHXBT = result;\n        NewKrakenPriceTicker(priceETHXBT, myid, proof);\n\n        validIds[myid] = false;\n\n        update();\n    }\n\n    function update() public payable {\n        uint feeNeeded = oraclize_getPrice(\"URL\");\n        if (feeNeeded > this.balance) {\n            NewOraclizeQuery(\"Oraclize query was NOT sent, please add some ETH to cover for the query fee\", feeNeeded, 0);\n        } else {\n            bytes32 queryId = oraclize_query(60, \"URL\", \"json(https://api.kraken.com/0/public/Ticker?pair=ETHXBT).result.XETHXXBT.c.0\", _gasLimit);\n            // add query ID to mapping\n            validIds[queryId] = true;\n            NewOraclizeQuery(\"Oraclize query was sent, standing by for the answer..\", feeNeeded, queryId);\n        }\n    }\n}\n",
  "sourcePath": "/home/aznagy/work/oraclize/tutorial-oraclize/contracts/KrakenPriceTicker.sol",
  "compiler": {
    "name": "solc",
    "version": "0.4.19+commit.c4cbbb05.Emscripten.clang"
  },
  "schemaVersion": "2.0.0",
  "updatedAt": "2018-08-15T19:50:45.788Z"
}