{
  "contractName": "YoutubeViews",
  "abi": [
    {
      "constant": true,
      "inputs": [],
      "name": "viewsCount",
      "outputs": [
        {
          "name": "",
          "type": "string"
        }
      ],
      "payable": false,
      "stateMutability": "view",
      "type": "function"
    },
    {
      "inputs": [],
      "payable": false,
      "stateMutability": "nonpayable",
      "type": "constructor"
    },
    {
      "anonymous": false,
      "inputs": [
        {
          "indexed": false,
          "name": "description",
          "type": "string"
        }
      ],
      "name": "NewOraclizeQuery",
      "type": "event"
    },
    {
      "anonymous": false,
      "inputs": [
        {
          "indexed": false,
          "name": "views",
          "type": "string"
        }
      ],
      "name": "NewYoutubeViewsCount",
      "type": "event"
    },
    {
      "constant": false,
      "inputs": [
        {
          "name": "myid",
          "type": "bytes32"
        },
        {
          "name": "result",
          "type": "string"
        }
      ],
      "name": "__callback",
      "outputs": [],
      "payable": false,
      "stateMutability": "nonpayable",
      "type": "function"
    },
    {
      "constant": false,
      "inputs": [
        {
          "name": "myid",
          "type": "bytes32"
        },
        {
          "name": "result",
          "type": "string"
        },
        {
          "name": "proof",
          "type": "bytes"
        }
      ],
      "name": "__callback",
      "outputs": [],
      "payable": false,
      "stateMutability": "nonpayable",
      "type": "function"
    },
    {
      "constant": false,
      "inputs": [],
      "name": "update",
      "outputs": [],
      "payable": true,
      "stateMutability": "payable",
      "type": "function"
    }
  ],
  "bytecode": "0x606060405234156200001057600080fd5b60008054600160a060020a03191673bb029d89efb9e7eda9c8baeb164cfbd021a6aa771790556200004e640100000000620003906200005482021704565b62000ac8565b60006200014c6040805190810160405280600381526020017f55524c000000000000000000000000000000000000000000000000000000000081525060a06040519081016040908152606982527f68746d6c2868747470733a2f2f7777772e796f75747562652e636f6d2f77617460208301527f63683f763d39625a6b70377131396630292e7870617468282f2f2a5b636f6e74908201527f61696e732840636c6173732c202277617463682d766965772d636f756e74222960608201527f5d2f7465787428292900000000000000000000000000000000000000000000006080820152640100000000620006d2620001f782021704565b60008181526006602052604090819020805460ff191660011790559091507f096835e36c2ccea88ff2b3aca87dfc938b977e52ea656873ff76a8dba50d4d34905160208082526035908201527f4f7261636c697a65207175657279207761732073656e742c207374616e64696e6040808301919091527f6720627920666f722074686520616e737765722e2e000000000000000000000060608301526080909101905180910390a150565b600080548190600160a060020a031615806200023557506000546200023390600160a060020a031664010000000062000a576200060982021704565b155b15620002575762000255600064010000000062000a5b6200060d82021704565b505b60008054600160a060020a0316906338cc483190604051602001526040518163ffffffff167c0100000000000000000000000000000000000000000000000000000000028152600401602060405180830381600087803b1515620002ba57600080fd5b6102c65a03f11515620002cc57600080fd5b5050506040518051600154600160a060020a0390811691161490506200038b5760008054600160a060020a0316906338cc483190604051602001526040518163ffffffff167c0100000000000000000000000000000000000000000000000000000000028152600401602060405180830381600087803b15156200034f57600080fd5b6102c65a03f115156200036157600080fd5b505050604051805160018054600160a060020a031916600160a060020a0392909216919091179055505b600154600160a060020a031663524f3889856000604051602001526040518263ffffffff167c01000000000000000000000000000000000000000000000000000000000281526004018080602001828103825283818151815260200191508051906020019080838360005b8381101562000410578082015183820152602001620003f6565b50505050905090810190601f1680156200043e5780820380516001836020036101000a031916815260200191505b5092505050602060405180830381600087803b15156200045d57600080fd5b6102c65a03f115156200046f57600080fd5b5050506040518051915050670de0b6b3a764000062030d403a02018111156200049c576000915062000602565b600154600160a060020a031663adf59f99826000878782604051602001526040518563ffffffff167c0100000000000000000000000000000000000000000000000000000000028152600401808481526020018060200180602001838103835285818151815260200191508051906020019080838360005b838110156200052e57808201518382015260200162000514565b50505050905090810190601f1680156200055c5780820380516001836020036101000a031916815260200191505b50838103825284818151815260200191508051906020019080838360005b83811015620005945780820151838201526020016200057a565b50505050905090810190601f168015620005c25780820380516001836020036101000a031916815260200191505b50955050505050506020604051808303818588803b1515620005e357600080fd5b6125ee5a03f11515620005f557600080fd5b5050505060405180519250505b5092915050565b3b90565b60006200062764010000000062000a6b6200062d82021704565b92915050565b6000806200065d731d3b2638a7cc9f2cb3d298a3da7a90b67e5506ed64010000000062000a576200060982021704565b1115620006df5760008054600160a060020a031916731d3b2638a7cc9f2cb3d298a3da7a90b67e5506ed179055620006d660408051908101604052600b81527f6574685f6d61696e6e6574000000000000000000000000000000000000000000602082015264010000000062000dea62000a0d82021704565b50600162000a0a565b60006200070e73c03a2615d5efaf5f49f60b7bb6583eaec212fdf164010000000062000a576200060982021704565b1115620007875760008054600160a060020a03191673c03a2615d5efaf5f49f60b7bb6583eaec212fdf1179055620006d660408051908101604052600c81527f6574685f726f707374656e330000000000000000000000000000000000000000602082015264010000000062000dea62000a0d82021704565b6000620007b673b7a07bcf2ba2f2703b24c0691b5278999c59ac7e64010000000062000a576200060982021704565b11156200082f5760008054600160a060020a03191673b7a07bcf2ba2f2703b24c0691b5278999c59ac7e179055620006d660408051908101604052600981527f6574685f6b6f76616e0000000000000000000000000000000000000000000000602082015264010000000062000dea62000a0d82021704565b60006200085e73146500cfd35b22e4a392fe0adc06de1a1368ed4864010000000062000a576200060982021704565b1115620008d75760008054600160a060020a03191673146500cfd35b22e4a392fe0adc06de1a1368ed48179055620006d660408051908101604052600b81527f6574685f72696e6b656279000000000000000000000000000000000000000000602082015264010000000062000dea62000a0d82021704565b600062000906736f485c8bf6fc43ea212e93bbf8ce046c7f1cb47564010000000062000a576200060982021704565b11156200093c575060008054600160a060020a031916736f485c8bf6fc43ea212e93bbf8ce046c7f1cb475179055600162000a0a565b60006200096b7320e12a1f859b3feae5fb2a0a32c18f5a65555bbf64010000000062000a576200060982021704565b1115620009a1575060008054600160a060020a0319167320e12a1f859b3feae5fb2a0a32c18f5a65555bbf179055600162000a0a565b6000620009d07351efaf4c8b3c9afbd5ab9f4bbc82784ab6ef8faa64010000000062000a576200060982021704565b111562000a06575060008054600160a060020a0319167351efaf4c8b3c9afbd5ab9f4bbc82784ab6ef8faa179055600162000a0a565b5060005b90565b600281805162000a2292916020019062000a26565b5050565b828054600181600116156101000203166002900490600052602060002090601f016020900481019282601f1062000a6957805160ff191683800117855562000a99565b8280016001018555821562000a99579182015b8281111562000a9957825182559160200191906001019062000a7c565b5062000aa792915062000aab565b5090565b62000a0a91905b8082111562000aa7576000815560010162000ab2565b610ec58062000ad86000396000f3006060604052600436106100485763ffffffff60e060020a6000350416631e7d6de2811461004d57806327dc297e146100d757806338bbfa501461012f578063a2e62045146101c7575b600080fd5b341561005857600080fd5b6100606101cf565b60405160208082528190810183818151815260200191508051906020019080838360005b8381101561009c578082015183820152602001610084565b50505050905090810190601f1680156100c95780820380516001836020036101000a031916815260200191505b509250505060405180910390f35b34156100e257600080fd5b61012d600480359060446024803590810190830135806020601f8201819004810201604051908101604052818152929190602084018383808284375094965061026d95505050505050565b005b341561013a57600080fd5b61012d600480359060446024803590810190830135806020601f8201819004810201604051908101604052818152929190602084018383808284378201915050505050509190803590602001908201803590602001908080601f01602080910402602001604051908101604052818152929190602084018383808284375094965061038b95505050505050565b61012d610390565b60058054600181600116156101000203166002900480601f0160208091040260200160405190810160405280929190818152602001828054600181600116156101000203166002900480156102655780601f1061023a57610100808354040283529160200191610265565b820191906000526020600020905b81548152906001019060200180831161024857829003601f168201915b505050505081565b610275610524565b600160a060020a031633600160a060020a031614151561029457600080fd5b60008281526006602052604090205460ff1615156102b157600080fd5b60058180516102c4929160200190610e01565b5060008281526006602052604090819020805460ff191690557f7d98811bf2d6306eafbcf983544ff9fafb0e21755903f63b345273983e92f9e79060059051602080825282546002600019610100600184161502019091160490820181905281906040820190849080156103795780601f1061034e57610100808354040283529160200191610379565b820191906000526020600020905b81548152906001019060200180831161035c57829003601f168201915b50509250505060405180910390a15050565b505050565b60006104796040805190810160405280600381526020017f55524c000000000000000000000000000000000000000000000000000000000081525060a060405190810160405280606981526020017f68746d6c2868747470733a2f2f7777772e796f75747562652e636f6d2f77617481526020017f63683f763d39625a6b70377131396630292e7870617468282f2f2a5b636f6e7481526020017f61696e732840636c6173732c202277617463682d766965772d636f756e74222981526020017f5d2f7465787428292900000000000000000000000000000000000000000000008152506106d2565b60008181526006602052604090819020805460ff191660011790559091507f096835e36c2ccea88ff2b3aca87dfc938b977e52ea656873ff76a8dba50d4d34905160208082526035908201527f4f7261636c697a65207175657279207761732073656e742c207374616e64696e6040808301919091527f6720627920666f722074686520616e737765722e2e000000000000000000000060608301526080909101905180910390a150565b60008054600160a060020a0316158061054f575060005461054d90600160a060020a0316610a57565b155b156105605761055e6000610a5b565b505b60008054600160a060020a0316906338cc483190604051602001526040518163ffffffff1660e060020a028152600401602060405180830381600087803b15156105a957600080fd5b6102c65a03f115156105ba57600080fd5b5050506040518051600154600160a060020a03908116911614905061066a5760008054600160a060020a0316906338cc483190604051602001526040518163ffffffff1660e060020a028152600401602060405180830381600087803b151561062257600080fd5b6102c65a03f1151561063357600080fd5b50505060405180516001805473ffffffffffffffffffffffffffffffffffffffff1916600160a060020a0392909216919091179055505b600154600160a060020a031663c281d19e6000604051602001526040518163ffffffff1660e060020a028152600401602060405180830381600087803b15156106b257600080fd5b6102c65a03f115156106c357600080fd5b50505060405180519150505b90565b600080548190600160a060020a031615806106ff57506000546106fd90600160a060020a0316610a57565b155b156107105761070e6000610a5b565b505b60008054600160a060020a0316906338cc483190604051602001526040518163ffffffff1660e060020a028152600401602060405180830381600087803b151561075957600080fd5b6102c65a03f1151561076a57600080fd5b5050506040518051600154600160a060020a03908116911614905061081a5760008054600160a060020a0316906338cc483190604051602001526040518163ffffffff1660e060020a028152600401602060405180830381600087803b15156107d257600080fd5b6102c65a03f115156107e357600080fd5b50505060405180516001805473ffffffffffffffffffffffffffffffffffffffff1916600160a060020a0392909216919091179055505b600154600160a060020a031663524f3889856000604051602001526040518263ffffffff1660e060020a0281526004018080602001828103825283818151815260200191508051906020019080838360005b8381101561088457808201518382015260200161086c565b50505050905090810190601f1680156108b15780820380516001836020036101000a031916815260200191505b5092505050602060405180830381600087803b15156108cf57600080fd5b6102c65a03f115156108e057600080fd5b5050506040518051915050670de0b6b3a764000062030d403a020181111561090b5760009150610a50565b600154600160a060020a031663adf59f99826000878782604051602001526040518563ffffffff1660e060020a028152600401808481526020018060200180602001838103835285818151815260200191508051906020019080838360005b8381101561098257808201518382015260200161096a565b50505050905090810190601f1680156109af5780820380516001836020036101000a031916815260200191505b50838103825284818151815260200191508051906020019080838360005b838110156109e55780820151838201526020016109cd565b50505050905090810190601f168015610a125780820380516001836020036101000a031916815260200191505b50955050505050506020604051808303818588803b1515610a3257600080fd5b6125ee5a03f11515610a4357600080fd5b5050505060405180519250505b5092915050565b3b90565b6000610a65610a6b565b92915050565b600080610a8b731d3b2638a7cc9f2cb3d298a3da7a90b67e5506ed610a57565b1115610b08576000805473ffffffffffffffffffffffffffffffffffffffff1916731d3b2638a7cc9f2cb3d298a3da7a90b67e5506ed179055610b0060408051908101604052600b81527f6574685f6d61696e6e65740000000000000000000000000000000000000000006020820152610dea565b5060016106cf565b6000610b2773c03a2615d5efaf5f49f60b7bb6583eaec212fdf1610a57565b1115610b9c576000805473ffffffffffffffffffffffffffffffffffffffff191673c03a2615d5efaf5f49f60b7bb6583eaec212fdf1179055610b0060408051908101604052600c81527f6574685f726f707374656e3300000000000000000000000000000000000000006020820152610dea565b6000610bbb73b7a07bcf2ba2f2703b24c0691b5278999c59ac7e610a57565b1115610c30576000805473ffffffffffffffffffffffffffffffffffffffff191673b7a07bcf2ba2f2703b24c0691b5278999c59ac7e179055610b0060408051908101604052600981527f6574685f6b6f76616e00000000000000000000000000000000000000000000006020820152610dea565b6000610c4f73146500cfd35b22e4a392fe0adc06de1a1368ed48610a57565b1115610cc4576000805473ffffffffffffffffffffffffffffffffffffffff191673146500cfd35b22e4a392fe0adc06de1a1368ed48179055610b0060408051908101604052600b81527f6574685f72696e6b6562790000000000000000000000000000000000000000006020820152610dea565b6000610ce3736f485c8bf6fc43ea212e93bbf8ce046c7f1cb475610a57565b1115610d2457506000805473ffffffffffffffffffffffffffffffffffffffff1916736f485c8bf6fc43ea212e93bbf8ce046c7f1cb47517905560016106cf565b6000610d437320e12a1f859b3feae5fb2a0a32c18f5a65555bbf610a57565b1115610d8457506000805473ffffffffffffffffffffffffffffffffffffffff19167320e12a1f859b3feae5fb2a0a32c18f5a65555bbf17905560016106cf565b6000610da37351efaf4c8b3c9afbd5ab9f4bbc82784ab6ef8faa610a57565b1115610de457506000805473ffffffffffffffffffffffffffffffffffffffff19167351efaf4c8b3c9afbd5ab9f4bbc82784ab6ef8faa17905560016106cf565b50600090565b6002818051610dfd929160200190610e01565b5050565b828054600181600116156101000203166002900490600052602060002090601f016020900481019282601f10610e4257805160ff1916838001178555610e6f565b82800160010185558215610e6f579182015b82811115610e6f578251825591602001919060010190610e54565b50610e7b929150610e7f565b5090565b6106cf91905b80821115610e7b5760008155600101610e855600a165627a7a723058209517f094858181dcf5be1179792fa24f0718affe5a76b639f46e2dd03391b2370029",
  "source": "/*\n    Youtube video views\n\n    This contract keeps in storage a views counter\n    for a given Youtube video.\n*/\n\npragma solidity ^0.4.18;\n\nimport \"./oraclizeAPI_0.5.sol\";\n\n\ncontract YoutubeViews is usingOraclize {\n\n    string public viewsCount;\n    mapping(bytes32 => bool) validIds;\n\n    event NewOraclizeQuery(string description);\n    event NewYoutubeViewsCount(string views);\n\n    function YoutubeViews() public {\n        OAR = OraclizeAddrResolverI(0xBb029d89EFb9E7EDA9C8BAEb164cfBd021A6aa77);\n        update();\n    }\n\n    function __callback(bytes32 myid, string result) public {\n        if (msg.sender != oraclize_cbAddress()) revert();\n        if (!validIds[myid]) revert();\n        viewsCount = result;\n        validIds[myid] = false;\n        // do something with viewsCount\n        NewYoutubeViewsCount(viewsCount);\n    }\n\n    function update() public payable {\n        bytes32 queryId = oraclize_query(\"URL\", 'html(https://www.youtube.com/watch?v=9bZkp7q19f0).xpath(//*[contains(@class, \"watch-view-count\")]/text())');\n        validIds[queryId] = true;\n        NewOraclizeQuery(\"Oraclize query was sent, standing by for the answer..\");\n    }\n}\n",
  "sourcePath": "/home/aznagy/work/oraclize/tutorial-oraclize/contracts/YoutubeViews.sol",
  "compiler": {
    "name": "solc",
    "version": "0.4.19+commit.c4cbbb05.Emscripten.clang"
  },
  "schemaVersion": "2.0.0",
  "updatedAt": "2018-08-15T19:50:45.787Z"
}